{
  "_format": "hh-sol-artifact-1",
  "contractName": "HealthRecords",
  "sourceName": "contracts/HealthRecords.sol",
  "abi": [
    {
      "anonymous": false,
      "inputs": [
        {
          "indexed": true,
          "internalType": "address",
          "name": "patient",
          "type": "address"
        },
        {
          "indexed": true,
          "internalType": "address",
          "name": "provider",
          "type": "address"
        },
        {
          "indexed": false,
          "internalType": "uint256",
          "name": "expiryTime",
          "type": "uint256"
        }
      ],
      "name": "AccessGranted",
      "type": "event"
    },
    {
      "anonymous": false,
      "inputs": [
        {
          "indexed": true,
          "internalType": "address",
          "name": "patient",
          "type": "address"
        },
        {
          "indexed": true,
          "internalType": "address",
          "name": "provider",
          "type": "address"
        },
        {
          "indexed": false,
          "internalType": "uint256",
          "name": "expiryTime",
          "type": "uint256"
        }
      ],
      "name": "AccessRequested",
      "type": "event"
    },
    {
      "anonymous": false,
      "inputs": [
        {
          "indexed": true,
          "internalType": "address",
          "name": "patient",
          "type": "address"
        },
        {
          "indexed": true,
          "internalType": "address",
          "name": "provider",
          "type": "address"
        }
      ],
      "name": "AccessRevoked",
      "type": "event"
    },
    {
      "anonymous": false,
      "inputs": [
        {
          "indexed": true,
          "internalType": "address",
          "name": "previousOwner",
          "type": "address"
        },
        {
          "indexed": true,
          "internalType": "address",
          "name": "newOwner",
          "type": "address"
        }
      ],
      "name": "OwnershipTransferred",
      "type": "event"
    },
    {
      "anonymous": false,
      "inputs": [
        {
          "indexed": true,
          "internalType": "address",
          "name": "patient",
          "type": "address"
        },
        {
          "indexed": true,
          "internalType": "address",
          "name": "accessor",
          "type": "address"
        },
        {
          "indexed": false,
          "internalType": "string",
          "name": "recordId",
          "type": "string"
        },
        {
          "indexed": false,
          "internalType": "uint256",
          "name": "timestamp",
          "type": "uint256"
        }
      ],
      "name": "RecordAccessed",
      "type": "event"
    },
    {
      "anonymous": false,
      "inputs": [
        {
          "indexed": true,
          "internalType": "address",
          "name": "patient",
          "type": "address"
        },
        {
          "indexed": false,
          "internalType": "string",
          "name": "recordId",
          "type": "string"
        },
        {
          "indexed": false,
          "internalType": "string",
          "name": "recordType",
          "type": "string"
        },
        {
          "indexed": false,
          "internalType": "uint256",
          "name": "timestamp",
          "type": "uint256"
        }
      ],
      "name": "RecordAdded",
      "type": "event"
    },
    {
      "anonymous": false,
      "inputs": [
        {
          "indexed": true,
          "internalType": "address",
          "name": "patient",
          "type": "address"
        },
        {
          "indexed": false,
          "internalType": "string",
          "name": "recordId",
          "type": "string"
        },
        {
          "indexed": false,
          "internalType": "uint256",
          "name": "timestamp",
          "type": "uint256"
        }
      ],
      "name": "RecordUpdated",
      "type": "event"
    },
    {
      "inputs": [
        {
          "internalType": "string",
          "name": "recordId",
          "type": "string"
        },
        {
          "internalType": "string",
          "name": "ipfsHash",
          "type": "string"
        },
        {
          "internalType": "string",
          "name": "recordType",
          "type": "string"
        },
        {
          "internalType": "string",
          "name": "metadata",
          "type": "string"
        }
      ],
      "name": "addRecord",
      "outputs": [],
      "stateMutability": "nonpayable",
      "type": "function"
    },
    {
      "inputs": [
        {
          "internalType": "address",
          "name": "patient",
          "type": "address"
        },
        {
          "internalType": "address",
          "name": "provider",
          "type": "address"
        }
      ],
      "name": "checkAccess",
      "outputs": [
        {
          "internalType": "bool",
          "name": "",
          "type": "bool"
        }
      ],
      "stateMutability": "view",
      "type": "function"
    },
    {
      "inputs": [],
      "name": "getAccessLogs",
      "outputs": [
        {
          "components": [
            {
              "internalType": "address",
              "name": "accessor",
              "type": "address"
            },
            {
              "internalType": "uint256",
              "name": "accessTime",
              "type": "uint256"
            },
            {
              "internalType": "string",
              "name": "recordId",
              "type": "string"
            }
          ],
          "internalType": "struct HealthRecords.AccessLog[]",
          "name": "",
          "type": "tuple[]"
        }
      ],
      "stateMutability": "view",
      "type": "function"
    },
    {
      "inputs": [],
      "name": "getAuthorizedProviders",
      "outputs": [
        {
          "internalType": "address[]",
          "name": "",
          "type": "address[]"
        }
      ],
      "stateMutability": "view",
      "type": "function"
    },
    {
      "inputs": [
        {
          "internalType": "address",
          "name": "patient",
          "type": "address"
        },
        {
          "internalType": "string",
          "name": "recordId",
          "type": "string"
        }
      ],
      "name": "getRecord",
      "outputs": [
        {
          "components": [
            {
              "internalType": "string",
              "name": "ipfsHash",
              "type": "string"
            },
            {
              "internalType": "string",
              "name": "recordType",
              "type": "string"
            },
            {
              "internalType": "uint256",
              "name": "timestamp",
              "type": "uint256"
            },
            {
              "internalType": "string",
              "name": "metadata",
              "type": "string"
            },
            {
              "internalType": "bool",
              "name": "exists",
              "type": "bool"
            }
          ],
          "internalType": "struct HealthRecords.Record",
          "name": "",
          "type": "tuple"
        }
      ],
      "stateMutability": "view",
      "type": "function"
    },
    {
      "inputs": [
        {
          "internalType": "address",
          "name": "patient",
          "type": "address"
        }
      ],
      "name": "getRecordIds",
      "outputs": [
        {
          "internalType": "string[]",
          "name": "",
          "type": "string[]"
        }
      ],
      "stateMutability": "view",
      "type": "function"
    },
    {
      "inputs": [
        {
          "internalType": "address",
          "name": "patient",
          "type": "address"
        },
        {
          "internalType": "string",
          "name": "recordId",
          "type": "string"
        }
      ],
      "name": "logAccess",
      "outputs": [],
      "stateMutability": "nonpayable",
      "type": "function"
    },
    {
      "inputs": [
        {
          "internalType": "address",
          "name": "provider",
          "type": "address"
        },
        {
          "internalType": "bool",
          "name": "approve",
          "type": "bool"
        }
      ],
      "name": "manageAccess",
      "outputs": [],
      "stateMutability": "nonpayable",
      "type": "function"
    },
    {
      "inputs": [],
      "name": "owner",
      "outputs": [
        {
          "internalType": "address",
          "name": "",
          "type": "address"
        }
      ],
      "stateMutability": "view",
      "type": "function"
    },
    {
      "inputs": [],
      "name": "renounceOwnership",
      "outputs": [],
      "stateMutability": "nonpayable",
      "type": "function"
    },
    {
      "inputs": [
        {
          "internalType": "address",
          "name": "patient",
          "type": "address"
        },
        {
          "internalType": "uint256",
          "name": "durationInDays",
          "type": "uint256"
        }
      ],
      "name": "requestAccess",
      "outputs": [],
      "stateMutability": "nonpayable",
      "type": "function"
    },
    {
      "inputs": [
        {
          "internalType": "address",
          "name": "provider",
          "type": "address"
        }
      ],
      "name": "revokeAccess",
      "outputs": [],
      "stateMutability": "nonpayable",
      "type": "function"
    },
    {
      "inputs": [
        {
          "internalType": "address",
          "name": "newOwner",
          "type": "address"
        }
      ],
      "name": "transferOwnership",
      "outputs": [],
      "stateMutability": "nonpayable",
      "type": "function"
    },
    {
      "inputs": [
        {
          "internalType": "string",
          "name": "recordId",
          "type": "string"
        },
        {
          "internalType": "string",
          "name": "ipfsHash",
          "type": "string"
        },
        {
          "internalType": "string",
          "name": "metadata",
          "type": "string"
        }
      ],
      "name": "updateRecord",
      "outputs": [],
      "stateMutability": "nonpayable",
      "type": "function"
    }
  ],
  "bytecode": "0x608060405234801561001057600080fd5b5061002d61002261003960201b60201c565b61004160201b60201c565b60018081905550610105565b600033905090565b60008060009054906101000a900473ffffffffffffffffffffffffffffffffffffffff169050816000806101000a81548173ffffffffffffffffffffffffffffffffffffffff021916908373ffffffffffffffffffffffffffffffffffffffff1602179055508173ffffffffffffffffffffffffffffffffffffffff168173ffffffffffffffffffffffffffffffffffffffff167f8be0079c531659141344cd1fd0a4f28419497f9722a3daafe3b4186f6b6457e060405160405180910390a35050565b61383b806101146000396000f3fe608060405234801561001057600080fd5b50600436106100ea5760003560e01c806397fd28b31161008c578063bbaf36b511610066578063bbaf36b514610221578063db979bf814610251578063f2fde38b1461026f578063f30562b61461028b576100ea565b806397fd28b3146101cb5780639ee07ccc146101e7578063bb702b9e14610203576100ea565b806362e1f745116100c857806362e1f74514610157578063715018a61461018757806385e68531146101915780638da5cb5b146101ad576100ea565b8063152d8103146100ef5780632c30b8291461010b578063473fde8d1461013b575b600080fd5b610109600480360381019061010491906124b6565b6102a7565b005b61012560048036038101906101209190612512565b6105a3565b6040516101329190612680565b60405180910390f35b610155600480360381019061015091906126da565b61084a565b005b610171600480360381019061016c919061271a565b610c91565b60405161017e9190612769565b60405180910390f35b61018f610dc0565b005b6101ab60048036038101906101a69190612512565b610dd4565b005b6101b561122e565b6040516101c29190612793565b60405180910390f35b6101e560048036038101906101e091906127ae565b611257565b005b61020160048036038101906101fc91906128bb565b611559565b005b61020b6117e3565b60405161021891906129b9565b60405180910390f35b61023b600480360381019061023691906124b6565b6118ae565b6040516102489190612a7d565b60405180910390f35b610259611d39565b6040516102669190612bb1565b60405180910390f35b61028960048036038101906102849190612512565b611ec7565b005b6102a560048036038101906102a09190612bd3565b611f4a565b005b8173ffffffffffffffffffffffffffffffffffffffff163373ffffffffffffffffffffffffffffffffffffffff161415801561036c5750600460008373ffffffffffffffffffffffffffffffffffffffff1673ffffffffffffffffffffffffffffffffffffffff16815260200190815260200160002060003373ffffffffffffffffffffffffffffffffffffffff1673ffffffffffffffffffffffffffffffffffffffff16815260200190815260200160002060030160009054906101000a900460ff165b80156103f7575042600460008473ffffffffffffffffffffffffffffffffffffffff1673ffffffffffffffffffffffffffffffffffffffff16815260200190815260200160002060003373ffffffffffffffffffffffffffffffffffffffff1673ffffffffffffffffffffffffffffffffffffffff1681526020019081526020016000206002015410155b610436576040517f08c379a000000000000000000000000000000000000000000000000000000000815260040161042d90612cd7565b60405180910390fd5b600660008373ffffffffffffffffffffffffffffffffffffffff1673ffffffffffffffffffffffffffffffffffffffff16815260200190815260200160002060405180606001604052803373ffffffffffffffffffffffffffffffffffffffff16815260200142815260200183815250908060018154018082558091505060019003906000526020600020906003020160009091909190915060008201518160000160006101000a81548173ffffffffffffffffffffffffffffffffffffffff021916908373ffffffffffffffffffffffffffffffffffffffff1602179055506020820151816001015560408201518160020190816105359190612f03565b5050503373ffffffffffffffffffffffffffffffffffffffff168273ffffffffffffffffffffffffffffffffffffffff167fa8c88859ce36fd5f0d1f642ec7fe1799a59641817c2cace9eab675abb5f71785834260405161059792919061301d565b60405180910390a35050565b6060818073ffffffffffffffffffffffffffffffffffffffff163373ffffffffffffffffffffffffffffffffffffffff1614806106f45750600460008273ffffffffffffffffffffffffffffffffffffffff1673ffffffffffffffffffffffffffffffffffffffff16815260200190815260200160002060003373ffffffffffffffffffffffffffffffffffffffff1673ffffffffffffffffffffffffffffffffffffffff16815260200190815260200160002060030160009054906101000a900460ff1680156106f3575042600460008373ffffffffffffffffffffffffffffffffffffffff1673ffffffffffffffffffffffffffffffffffffffff16815260200190815260200160002060003373ffffffffffffffffffffffffffffffffffffffff1673ffffffffffffffffffffffffffffffffffffffff1681526020019081526020016000206002015410155b5b610733576040517f08c379a000000000000000000000000000000000000000000000000000000000815260040161072a906130bf565b60405180910390fd5b600360008473ffffffffffffffffffffffffffffffffffffffff1673ffffffffffffffffffffffffffffffffffffffff168152602001908152602001600020805480602002602001604051908101604052809291908181526020016000905b8282101561083e5783829060005260206000200180546107b190612d26565b80601f01602080910402602001604051908101604052809291908181526020018280546107dd90612d26565b801561082a5780601f106107ff5761010080835404028352916020019161082a565b820191906000526020600020905b81548152906001019060200180831161080d57829003601f168201915b505050505081526020019060010190610792565b50505050915050919050565b61085261212b565b8173ffffffffffffffffffffffffffffffffffffffff16600460003373ffffffffffffffffffffffffffffffffffffffff1673ffffffffffffffffffffffffffffffffffffffff16815260200190815260200160002060008473ffffffffffffffffffffffffffffffffffffffff1673ffffffffffffffffffffffffffffffffffffffff16815260200190815260200160002060000160009054906101000a900473ffffffffffffffffffffffffffffffffffffffff1673ffffffffffffffffffffffffffffffffffffffff161461095f576040517f08c379a000000000000000000000000000000000000000000000000000000000815260040161095690613151565b60405180910390fd5b6000600460003373ffffffffffffffffffffffffffffffffffffffff1673ffffffffffffffffffffffffffffffffffffffff16815260200190815260200160002060008473ffffffffffffffffffffffffffffffffffffffff1673ffffffffffffffffffffffffffffffffffffffff1681526020019081526020016000209050818160030160006101000a81548160ff0219169083151502179055508115610c29576000805b600560003373ffffffffffffffffffffffffffffffffffffffff1673ffffffffffffffffffffffffffffffffffffffff16815260200190815260200160002080549050811015610b13578473ffffffffffffffffffffffffffffffffffffffff16600560003373ffffffffffffffffffffffffffffffffffffffff1673ffffffffffffffffffffffffffffffffffffffff1681526020019081526020016000208281548110610ab757610ab6613171565b5b9060005260206000200160009054906101000a900473ffffffffffffffffffffffffffffffffffffffff1673ffffffffffffffffffffffffffffffffffffffff1603610b065760019150610b13565b8080600101915050610a05565b5080610bba57600560003373ffffffffffffffffffffffffffffffffffffffff1673ffffffffffffffffffffffffffffffffffffffff168152602001908152602001600020849080600181540180825580915050600190039060005260206000200160009091909190916101000a81548173ffffffffffffffffffffffffffffffffffffffff021916908373ffffffffffffffffffffffffffffffffffffffff1602179055505b8373ffffffffffffffffffffffffffffffffffffffff163373ffffffffffffffffffffffffffffffffffffffff167f65d0cc1e52d49938ca4ad9f423c79c1b84d914b9a683fbc5d3f93ac3cc5635f58460020154604051610c1b91906131a0565b60405180910390a350610c84565b8273ffffffffffffffffffffffffffffffffffffffff163373ffffffffffffffffffffffffffffffffffffffff167f825c8be24eb0df19500f63e86c29e7d0d951e73056b889b891d85e40938d9b6e60405160405180910390a35b50610c8d61217a565b5050565b600080600460008573ffffffffffffffffffffffffffffffffffffffff1673ffffffffffffffffffffffffffffffffffffffff16815260200190815260200160002060008473ffffffffffffffffffffffffffffffffffffffff1673ffffffffffffffffffffffffffffffffffffffff1681526020019081526020016000206040518060800160405290816000820160009054906101000a900473ffffffffffffffffffffffffffffffffffffffff1673ffffffffffffffffffffffffffffffffffffffff1673ffffffffffffffffffffffffffffffffffffffff16815260200160018201548152602001600282015481526020016003820160009054906101000a900460ff161515151581525050905080606001518015610db7575042816040015110155b91505092915050565b610dc8612183565b610dd26000612201565b565b610ddc61212b565b6000600460003373ffffffffffffffffffffffffffffffffffffffff1673ffffffffffffffffffffffffffffffffffffffff16815260200190815260200160002060008373ffffffffffffffffffffffffffffffffffffffff1673ffffffffffffffffffffffffffffffffffffffff16815260200190815260200160002090508060030160009054906101000a900460ff16610ead576040517f08c379a0000000000000000000000000000000000000000000000000000000008152600401610ea490613207565b60405180910390fd5b60008160030160006101000a81548160ff02191690831515021790555042816002018190555060005b600560003373ffffffffffffffffffffffffffffffffffffffff1673ffffffffffffffffffffffffffffffffffffffff168152602001908152602001600020805490508110156111c7578273ffffffffffffffffffffffffffffffffffffffff16600560003373ffffffffffffffffffffffffffffffffffffffff1673ffffffffffffffffffffffffffffffffffffffff1681526020019081526020016000208281548110610f8857610f87613171565b5b9060005260206000200160009054906101000a900473ffffffffffffffffffffffffffffffffffffffff1673ffffffffffffffffffffffffffffffffffffffff16036111ba57600560003373ffffffffffffffffffffffffffffffffffffffff1673ffffffffffffffffffffffffffffffffffffffff1681526020019081526020016000206001600560003373ffffffffffffffffffffffffffffffffffffffff1673ffffffffffffffffffffffffffffffffffffffff1681526020019081526020016000208054905061105c9190613256565b8154811061106d5761106c613171565b5b9060005260206000200160009054906101000a900473ffffffffffffffffffffffffffffffffffffffff16600560003373ffffffffffffffffffffffffffffffffffffffff1673ffffffffffffffffffffffffffffffffffffffff16815260200190815260200160002082815481106110e9576110e8613171565b5b9060005260206000200160006101000a81548173ffffffffffffffffffffffffffffffffffffffff021916908373ffffffffffffffffffffffffffffffffffffffff160217905550600560003373ffffffffffffffffffffffffffffffffffffffff1673ffffffffffffffffffffffffffffffffffffffff1681526020019081526020016000208054806111805761117f61328a565b5b6001900381819060005260206000200160006101000a81549073ffffffffffffffffffffffffffffffffffffffff021916905590556111c7565b8080600101915050610ed6565b508173ffffffffffffffffffffffffffffffffffffffff163373ffffffffffffffffffffffffffffffffffffffff167f825c8be24eb0df19500f63e86c29e7d0d951e73056b889b891d85e40938d9b6e60405160405180910390a35061122b61217a565b50565b60008060009054906101000a900473ffffffffffffffffffffffffffffffffffffffff16905090565b61125f61212b565b60008451116112a3576040517f08c379a000000000000000000000000000000000000000000000000000000000815260040161129a90613305565b60405180910390fd5b60008351116112e7576040517f08c379a00000000000000000000000000000000000000000000000000000000081526004016112de90613371565b60405180910390fd5b600260003373ffffffffffffffffffffffffffffffffffffffff1673ffffffffffffffffffffffffffffffffffffffff1681526020019081526020016000208460405161133491906133cd565b908152602001604051809103902060040160009054906101000a900460ff1615611393576040517f08c379a000000000000000000000000000000000000000000000000000000000815260040161138a90613430565b60405180910390fd5b6040518060a0016040528084815260200183815260200142815260200182815260200160011515815250600260003373ffffffffffffffffffffffffffffffffffffffff1673ffffffffffffffffffffffffffffffffffffffff1681526020019081526020016000208560405161140a91906133cd565b9081526020016040518091039020600082015181600001908161142d9190612f03565b5060208201518160010190816114439190612f03565b506040820151816002015560608201518160030190816114639190612f03565b5060808201518160040160006101000a81548160ff021916908315150217905550905050600360003373ffffffffffffffffffffffffffffffffffffffff1673ffffffffffffffffffffffffffffffffffffffff168152602001908152602001600020849080600181540180825580915050600190039060005260206000200160009091909190915090816114f89190612f03565b503373ffffffffffffffffffffffffffffffffffffffff167fabf956e712eb5b9ee34b39c298c8f13b7e3ab5ac61e12fc5edb7ea72325f2aa385844260405161154393929190613450565b60405180910390a261155361217a565b50505050565b61156161212b565b3373ffffffffffffffffffffffffffffffffffffffff168273ffffffffffffffffffffffffffffffffffffffff16036115cf576040517f08c379a00000000000000000000000000000000000000000000000000000000081526004016115c690613507565b60405180910390fd5b6000811180156115e05750601e8111155b61161f576040517f08c379a000000000000000000000000000000000000000000000000000000000815260040161161690613599565b60405180910390fd5b6000620151808261163091906135b9565b4261163b91906135fb565b905060405180608001604052803373ffffffffffffffffffffffffffffffffffffffff16815260200142815260200182815260200160001515815250600460008573ffffffffffffffffffffffffffffffffffffffff1673ffffffffffffffffffffffffffffffffffffffff16815260200190815260200160002060003373ffffffffffffffffffffffffffffffffffffffff1673ffffffffffffffffffffffffffffffffffffffff16815260200190815260200160002060008201518160000160006101000a81548173ffffffffffffffffffffffffffffffffffffffff021916908373ffffffffffffffffffffffffffffffffffffffff160217905550602082015181600101556040820151816002015560608201518160030160006101000a81548160ff0219169083151502179055509050503373ffffffffffffffffffffffffffffffffffffffff168373ffffffffffffffffffffffffffffffffffffffff167f4cbb769395bcdc5d830a1e7559d3eb3153a961121c3ea3c8474b2c43b9ebdc4e836040516117ce91906131a0565b60405180910390a3506117df61217a565b5050565b6060600560003373ffffffffffffffffffffffffffffffffffffffff1673ffffffffffffffffffffffffffffffffffffffff1681526020019081526020016000208054806020026020016040519081016040528092919081815260200182805480156118a457602002820191906000526020600020905b8160009054906101000a900473ffffffffffffffffffffffffffffffffffffffff1673ffffffffffffffffffffffffffffffffffffffff168152602001906001019080831161185a575b5050505050905090565b6118b66122cd565b828073ffffffffffffffffffffffffffffffffffffffff163373ffffffffffffffffffffffffffffffffffffffff161480611a055750600460008273ffffffffffffffffffffffffffffffffffffffff1673ffffffffffffffffffffffffffffffffffffffff16815260200190815260200160002060003373ffffffffffffffffffffffffffffffffffffffff1673ffffffffffffffffffffffffffffffffffffffff16815260200190815260200160002060030160009054906101000a900460ff168015611a04575042600460008373ffffffffffffffffffffffffffffffffffffffff1673ffffffffffffffffffffffffffffffffffffffff16815260200190815260200160002060003373ffffffffffffffffffffffffffffffffffffffff1673ffffffffffffffffffffffffffffffffffffffff1681526020019081526020016000206002015410155b5b611a44576040517f08c379a0000000000000000000000000000000000000000000000000000000008152600401611a3b906130bf565b60405180910390fd5b600260008573ffffffffffffffffffffffffffffffffffffffff1673ffffffffffffffffffffffffffffffffffffffff16815260200190815260200160002083604051611a9191906133cd565b908152602001604051809103902060040160009054906101000a900460ff16611aef576040517f08c379a0000000000000000000000000000000000000000000000000000000008152600401611ae69061367b565b60405180910390fd5b600260008573ffffffffffffffffffffffffffffffffffffffff1673ffffffffffffffffffffffffffffffffffffffff16815260200190815260200160002083604051611b3c91906133cd565b90815260200160405180910390206040518060a0016040529081600082018054611b6590612d26565b80601f0160208091040260200160405190810160405280929190818152602001828054611b9190612d26565b8015611bde5780601f10611bb357610100808354040283529160200191611bde565b820191906000526020600020905b815481529060010190602001808311611bc157829003601f168201915b50505050508152602001600182018054611bf790612d26565b80601f0160208091040260200160405190810160405280929190818152602001828054611c2390612d26565b8015611c705780601f10611c4557610100808354040283529160200191611c70565b820191906000526020600020905b815481529060010190602001808311611c5357829003601f168201915b5050505050815260200160028201548152602001600382018054611c9390612d26565b80601f0160208091040260200160405190810160405280929190818152602001828054611cbf90612d26565b8015611d0c5780601f10611ce157610100808354040283529160200191611d0c565b820191906000526020600020905b815481529060010190602001808311611cef57829003601f168201915b505050505081526020016004820160009054906101000a900460ff16151515158152505091505092915050565b6060600660003373ffffffffffffffffffffffffffffffffffffffff1673ffffffffffffffffffffffffffffffffffffffff168152602001908152602001600020805480602002602001604051908101604052809291908181526020016000905b82821015611ebe57838290600052602060002090600302016040518060600160405290816000820160009054906101000a900473ffffffffffffffffffffffffffffffffffffffff1673ffffffffffffffffffffffffffffffffffffffff1673ffffffffffffffffffffffffffffffffffffffff16815260200160018201548152602001600282018054611e2d90612d26565b80601f0160208091040260200160405190810160405280929190818152602001828054611e5990612d26565b8015611ea65780601f10611e7b57610100808354040283529160200191611ea6565b820191906000526020600020905b815481529060010190602001808311611e8957829003601f168201915b50505050508152505081526020019060010190611d9a565b50505050905090565b611ecf612183565b600073ffffffffffffffffffffffffffffffffffffffff168173ffffffffffffffffffffffffffffffffffffffff1603611f3e576040517f08c379a0000000000000000000000000000000000000000000000000000000008152600401611f359061370d565b60405180910390fd5b611f4781612201565b50565b611f5261212b565b600260003373ffffffffffffffffffffffffffffffffffffffff1673ffffffffffffffffffffffffffffffffffffffff16815260200190815260200160002083604051611f9f91906133cd565b908152602001604051809103902060040160009054906101000a900460ff16611ffd576040517f08c379a0000000000000000000000000000000000000000000000000000000008152600401611ff49061367b565b60405180910390fd5b6000825111612041576040517f08c379a000000000000000000000000000000000000000000000000000000000815260040161203890613371565b60405180910390fd5b6000600260003373ffffffffffffffffffffffffffffffffffffffff1673ffffffffffffffffffffffffffffffffffffffff1681526020019081526020016000208460405161209091906133cd565b90815260200160405180910390209050828160000190816120b19190612f03565b50818160030190816120c39190612f03565b504281600201819055503373ffffffffffffffffffffffffffffffffffffffff167fae4c783475a18ba53ecf912e1233a535939d2963cae55b5df266e6d057de1b33854260405161211592919061301d565b60405180910390a25061212661217a565b505050565b600260015403612170576040517f08c379a000000000000000000000000000000000000000000000000000000000815260040161216790613779565b60405180910390fd5b6002600181905550565b60018081905550565b61218b6122c5565b73ffffffffffffffffffffffffffffffffffffffff166121a961122e565b73ffffffffffffffffffffffffffffffffffffffff16146121ff576040517f08c379a00000000000000000000000000000000000000000000000000000000081526004016121f6906137e5565b60405180910390fd5b565b60008060009054906101000a900473ffffffffffffffffffffffffffffffffffffffff169050816000806101000a81548173ffffffffffffffffffffffffffffffffffffffff021916908373ffffffffffffffffffffffffffffffffffffffff1602179055508173ffffffffffffffffffffffffffffffffffffffff168173ffffffffffffffffffffffffffffffffffffffff167f8be0079c531659141344cd1fd0a4f28419497f9722a3daafe3b4186f6b6457e060405160405180910390a35050565b600033905090565b6040518060a00160405280606081526020016060815260200160008152602001606081526020016000151581525090565b6000604051905090565b600080fd5b600080fd5b600073ffffffffffffffffffffffffffffffffffffffff82169050919050565b600061233d82612312565b9050919050565b61234d81612332565b811461235857600080fd5b50565b60008135905061236a81612344565b92915050565b600080fd5b600080fd5b6000601f19601f8301169050919050565b7f4e487b7100000000000000000000000000000000000000000000000000000000600052604160045260246000fd5b6123c38261237a565b810181811067ffffffffffffffff821117156123e2576123e161238b565b5b80604052505050565b60006123f56122fe565b905061240182826123ba565b919050565b600067ffffffffffffffff8211156124215761242061238b565b5b61242a8261237a565b9050602081019050919050565b82818337600083830152505050565b600061245961245484612406565b6123eb565b90508281526020810184848401111561247557612474612375565b5b612480848285612437565b509392505050565b600082601f83011261249d5761249c612370565b5b81356124ad848260208601612446565b91505092915050565b600080604083850312156124cd576124cc612308565b5b60006124db8582860161235b565b925050602083013567ffffffffffffffff8111156124fc576124fb61230d565b5b61250885828601612488565b9150509250929050565b60006020828403121561252857612527612308565b5b60006125368482850161235b565b91505092915050565b600081519050919050565b600082825260208201905092915050565b6000819050602082019050919050565b600081519050919050565b600082825260208201905092915050565b60005b838110156125a557808201518184015260208101905061258a565b60008484015250505050565b60006125bc8261256b565b6125c68185612576565b93506125d6818560208601612587565b6125df8161237a565b840191505092915050565b60006125f683836125b1565b905092915050565b6000602082019050919050565b60006126168261253f565b612620818561254a565b9350836020820285016126328561255b565b8060005b8581101561266e578484038952815161264f85826125ea565b945061265a836125fe565b925060208a01995050600181019050612636565b50829750879550505050505092915050565b6000602082019050818103600083015261269a818461260b565b905092915050565b60008115159050919050565b6126b7816126a2565b81146126c257600080fd5b50565b6000813590506126d4816126ae565b92915050565b600080604083850312156126f1576126f0612308565b5b60006126ff8582860161235b565b9250506020612710858286016126c5565b9150509250929050565b6000806040838503121561273157612730612308565b5b600061273f8582860161235b565b92505060206127508582860161235b565b9150509250929050565b612763816126a2565b82525050565b600060208201905061277e600083018461275a565b92915050565b61278d81612332565b82525050565b60006020820190506127a86000830184612784565b92915050565b600080600080608085870312156127c8576127c7612308565b5b600085013567ffffffffffffffff8111156127e6576127e561230d565b5b6127f287828801612488565b945050602085013567ffffffffffffffff8111156128135761281261230d565b5b61281f87828801612488565b935050604085013567ffffffffffffffff8111156128405761283f61230d565b5b61284c87828801612488565b925050606085013567ffffffffffffffff81111561286d5761286c61230d565b5b61287987828801612488565b91505092959194509250565b6000819050919050565b61289881612885565b81146128a357600080fd5b50565b6000813590506128b58161288f565b92915050565b600080604083850312156128d2576128d1612308565b5b60006128e08582860161235b565b92505060206128f1858286016128a6565b9150509250929050565b600081519050919050565b600082825260208201905092915050565b6000819050602082019050919050565b61293081612332565b82525050565b60006129428383612927565b60208301905092915050565b6000602082019050919050565b6000612966826128fb565b6129708185612906565b935061297b83612917565b8060005b838110156129ac5781516129938882612936565b975061299e8361294e565b92505060018101905061297f565b5085935050505092915050565b600060208201905081810360008301526129d3818461295b565b905092915050565b6129e481612885565b82525050565b6129f3816126a2565b82525050565b600060a0830160008301518482036000860152612a1682826125b1565b91505060208301518482036020860152612a3082826125b1565b9150506040830151612a4560408601826129db565b5060608301518482036060860152612a5d82826125b1565b9150506080830151612a7260808601826129ea565b508091505092915050565b60006020820190508181036000830152612a9781846129f9565b905092915050565b600081519050919050565b600082825260208201905092915050565b6000819050602082019050919050565b6000606083016000830151612ae36000860182612927565b506020830151612af660208601826129db565b5060408301518482036040860152612b0e82826125b1565b9150508091505092915050565b6000612b278383612acb565b905092915050565b6000602082019050919050565b6000612b4782612a9f565b612b518185612aaa565b935083602082028501612b6385612abb565b8060005b85811015612b9f5784840389528151612b808582612b1b565b9450612b8b83612b2f565b925060208a01995050600181019050612b67565b50829750879550505050505092915050565b60006020820190508181036000830152612bcb8184612b3c565b905092915050565b600080600060608486031215612bec57612beb612308565b5b600084013567ffffffffffffffff811115612c0a57612c0961230d565b5b612c1686828701612488565b935050602084013567ffffffffffffffff811115612c3757612c3661230d565b5b612c4386828701612488565b925050604084013567ffffffffffffffff811115612c6457612c6361230d565b5b612c7086828701612488565b9150509250925092565b600082825260208201905092915050565b7f4e6f7420617574686f72697a656420746f206c6f672061636365737300000000600082015250565b6000612cc1601c83612c7a565b9150612ccc82612c8b565b602082019050919050565b60006020820190508181036000830152612cf081612cb4565b9050919050565b7f4e487b7100000000000000000000000000000000000000000000000000000000600052602260045260246000fd5b60006002820490506001821680612d3e57607f821691505b602082108103612d5157612d50612cf7565b5b50919050565b60008190508160005260206000209050919050565b60006020601f8301049050919050565b600082821b905092915050565b600060088302612db97fffffffffffffffffffffffffffffffffffffffffffffffffffffffffffffffff82612d7c565b612dc38683612d7c565b95508019841693508086168417925050509392505050565b6000819050919050565b6000612e00612dfb612df684612885565b612ddb565b612885565b9050919050565b6000819050919050565b612e1a83612de5565b612e2e612e2682612e07565b848454612d89565b825550505050565b600090565b612e43612e36565b612e4e818484612e11565b505050565b5b81811015612e7257612e67600082612e3b565b600181019050612e54565b5050565b601f821115612eb757612e8881612d57565b612e9184612d6c565b81016020851015612ea0578190505b612eb4612eac85612d6c565b830182612e53565b50505b505050565b600082821c905092915050565b6000612eda60001984600802612ebc565b1980831691505092915050565b6000612ef38383612ec9565b9150826002028217905092915050565b612f0c8261256b565b67ffffffffffffffff811115612f2557612f2461238b565b5b612f2f8254612d26565b612f3a828285612e76565b600060209050601f831160018114612f6d5760008415612f5b578287015190505b612f658582612ee7565b865550612fcd565b601f198416612f7b86612d57565b60005b82811015612fa357848901518255600182019150602085019450602081019050612f7e565b86831015612fc05784890151612fbc601f891682612ec9565b8355505b6001600288020188555050505b505050505050565b6000612fe08261256b565b612fea8185612c7a565b9350612ffa818560208601612587565b6130038161237a565b840191505092915050565b61301781612885565b82525050565b600060408201905081810360008301526130378185612fd5565b9050613046602083018461300e565b9392505050565b7f4e6f7420617574686f72697a656420746f20616363657373207468697320726560008201527f636f726400000000000000000000000000000000000000000000000000000000602082015250565b60006130a9602483612c7a565b91506130b48261304d565b604082019050919050565b600060208201905081810360008301526130d88161309c565b9050919050565b7f4e6f2070656e64696e6720726571756573742066726f6d20746869732070726f60008201527f7669646572000000000000000000000000000000000000000000000000000000602082015250565b600061313b602583612c7a565b9150613146826130df565b604082019050919050565b6000602082019050818103600083015261316a8161312e565b9050919050565b7f4e487b7100000000000000000000000000000000000000000000000000000000600052603260045260246000fd5b60006020820190506131b5600083018461300e565b92915050565b7f50726f766964657220646f6573206e6f74206861766520616363657373000000600082015250565b60006131f1601d83612c7a565b91506131fc826131bb565b602082019050919050565b60006020820190508181036000830152613220816131e4565b9050919050565b7f4e487b7100000000000000000000000000000000000000000000000000000000600052601160045260246000fd5b600061326182612885565b915061326c83612885565b925082820390508181111561328457613283613227565b5b92915050565b7f4e487b7100000000000000000000000000000000000000000000000000000000600052603160045260246000fd5b7f5265636f72642049442063616e6e6f7420626520656d70747900000000000000600082015250565b60006132ef601983612c7a565b91506132fa826132b9565b602082019050919050565b6000602082019050818103600083015261331e816132e2565b9050919050565b7f4950465320686173682063616e6e6f7420626520656d70747900000000000000600082015250565b600061335b601983612c7a565b915061336682613325565b602082019050919050565b6000602082019050818103600083015261338a8161334e565b9050919050565b600081905092915050565b60006133a78261256b565b6133b18185613391565b93506133c1818560208601612587565b80840191505092915050565b60006133d9828461339c565b915081905092915050565b7f5265636f726420616c7265616479206578697374730000000000000000000000600082015250565b600061341a601583612c7a565b9150613425826133e4565b602082019050919050565b600060208201905081810360008301526134498161340d565b9050919050565b6000606082019050818103600083015261346a8186612fd5565b9050818103602083015261347e8185612fd5565b905061348d604083018461300e565b949350505050565b7f43616e6e6f7420726571756573742061636365737320746f20796f7572206f7760008201527f6e207265636f7264730000000000000000000000000000000000000000000000602082015250565b60006134f1602983612c7a565b91506134fc82613495565b604082019050919050565b60006020820190508181036000830152613520816134e4565b9050919050565b7f4475726174696f6e206d757374206265206265747765656e203120616e64203360008201527f3020646179730000000000000000000000000000000000000000000000000000602082015250565b6000613583602683612c7a565b915061358e82613527565b604082019050919050565b600060208201905081810360008301526135b281613576565b9050919050565b60006135c482612885565b91506135cf83612885565b92508282026135dd81612885565b915082820484148315176135f4576135f3613227565b5b5092915050565b600061360682612885565b915061361183612885565b925082820190508082111561362957613628613227565b5b92915050565b7f5265636f726420646f6573206e6f742065786973740000000000000000000000600082015250565b6000613665601583612c7a565b91506136708261362f565b602082019050919050565b6000602082019050818103600083015261369481613658565b9050919050565b7f4f776e61626c653a206e6577206f776e657220697320746865207a65726f206160008201527f6464726573730000000000000000000000000000000000000000000000000000602082015250565b60006136f7602683612c7a565b91506137028261369b565b604082019050919050565b60006020820190508181036000830152613726816136ea565b9050919050565b7f5265656e7472616e637947756172643a207265656e7472616e742063616c6c00600082015250565b6000613763601f83612c7a565b915061376e8261372d565b602082019050919050565b6000602082019050818103600083015261379281613756565b9050919050565b7f4f776e61626c653a2063616c6c6572206973206e6f7420746865206f776e6572600082015250565b60006137cf602083612c7a565b91506137da82613799565b602082019050919050565b600060208201905081810360008301526137fe816137c2565b905091905056fea2646970667358221220fa9895db96f7980aba74837eebeac960d181218b2c846245567149c1f74bd9f564736f6c634300081c0033",
  "linkReferences": {},
  "deployedLinkReferences": {}
}